:1000000002308A00B72A0000FF00030E8301A1001E
:100010000A08A0008A010408A2007708A300780853
:10002000A4007908A5007A08A60003170D08031399
:10003000A70003170F080313A80003170C080313E6
:10004000A90003170E080313AA00831383128C3030
:100050008400001C2D280C184E2822088400230838
:10006000F7002408F8002508F9002608FA002708F8
:1000700003178D000313280803178F0003132908A3
:1000800003178C0003132A0803178E00031320089C
:100090008A00210E8300FF0E7F0E09008A110A12CA
:1000A0005128B00A3008023C031D5828AF0AB0019D
:1000B0008E010B308F00DC308E002F083B3C031D7F
:1000C0006328AF01AE0A0C108A110A122D28C3371B
:1000D0006E33E933A024EE34E33461360000D434C7
:1000E000ED32BA1264100000D434ED32BA1264005A
:1000F0006F376F33661D253220006F376F33661DF3
:1001000025320001D434ED32BA1264006F376F33F8
:10011000661D25320001ED346E1D25322000C237E8
:100120006D3161106F372000ED346E1D25322000D7
:10013000C2376D3161106F336600ED346E1D2532AC
:1001400020004529D22752106F376F3366106F1089
:1001500000016F376F33E616F4326D38201E3D1004
:1001600030100001C634EE306C00D4326D386F3977
:10017000693D61326F003830840083130008031931
:10018000CF280130F800F701F70BC428F80BC3287B
:100190004A30F700F70BCA28CD28800BC128080089
:1001A0003F0EF039F7000F30060577048600000097
:1001B0000614DA28061008000608F700060E0F39A4
:1001C000F8000800831606108610061183128610A8
:1001D0000F3083160605F0388600831206150000DE
:1001E00006140000DC207808BF000610000006148A
:1001F0000000DC207808BE0006100F3083160605CC
:10020000860083123F0EF700F030F70577083E04B2
:10021000F8007808BE00BE1BE8283C1C86103C187D
:10022000861400000611000006103D0EBE000F30BF
:10023000BE053E08BF00D0203D080F39BE00BF00FC
:10024000D02008002830B2000C30B3000130B400D8
:100250000630B5000610861006110F30831606050D
:1002600086000610861006110F308312B800BB20DE
:100270000130B1003108033C031C46290330BF00A4
:10028000D0200530B800BB20B10A3A290230BF00A7
:10029000D0200530B800BB20B1013108033C031C5D
:1002A0005D2932303107840083130008B600BC0199
:1002B0003608BD00E220B10A4D298A110A12E92A46
:1002C000390B632966294030BA006729BA01013029
:1002D0003802BA073A088038BB00BC013B08BD00B1
:1002E000E22008003708073A031980290B3A03195E
:1002F0008529063A03198D29023A03199329982969
:100300000130B800B90060219D29BC010130BD0059
:10031000E2200230B800BB209D290130B800023035
:10032000B90060219D29BC011030BD00E2209D294B
:100330000130BC003708BD00E22008000B08B10006
:100340008B13831603178C170C1400000000831204
:100350000313B11B8B1703170C087F390319F229FC
:100360000313B10003170D080313B20003170F089E
:100370000313B3003108B7007221320803178D0050
:100380000313330803178F0003130B08B4008B13F8
:10039000831603178C170C1400000000831203133C
:1003A000B41B8B1703170C0D0E0D7F390319F2299F
:1003B0000313B10003170D080313B20003170F084E
:1003C0000313B3003108B7007221320803178D0000
:1003D0000313330803178F008D0A03198F0A0313C1
:1003E0009E290317031308000B08B2008B13831612
:1003F00003178C170C140000000083120313B21BA8
:100400008B1703182B2A03170C087F390313B2002C
:1004100003170D080313B30003170F080313B400E9
:100420003208B7007221330803178D000313340814
:1004300003178F0003130B08B5008B1383160317E4
:100440008C170C140000000083120313B51B8B17CC
:10045000B10B2B2A4A2A03170C0D0E0D7F390313FB
:10046000B20003170D080313B30003170F0803139B
:10047000B4003208B7007221330803178D0003134C
:10048000340803178F008D0A03198F0A0310031312
:10049000B10BF42908003808F80137020318532A71
:1004A0003708F7005F2AF7010830B900B70DF70DDC
:1004B000380877020318F700F80DB90B562A080020
:1004C0002030321E3030B3003108F700B11F702ADF
:1004D000F709F70A7708B1002D30B300B2173214CC
:1004E0003108B7006430B8004B227708B1003030D3
:1004F0007807B4003108B7000A30B8004B2230301A
:100500007707B60030307807B5003308F700303091
:10051000340203198F2AB214B21B3215A32A3308EE
:10052000B4002030B3003030350203199B2A321456
:10053000B21BB214A32A031D3214031DA32A3408CC
:10054000B5002030B4003219AA2AB218AD2A3218E8
:10055000B02AB32A3308B70072213408B7007221D9
:100560003508B70072213608B70072210800030869
:100570001F398300613083168F000F080A30831201
:10058000AB000A30AC00AD01AE01AF01B001831683
:1005900003170908C039890003131F129F12003086
:1005A00003178800831287018801890183133E3075
:1005B00083160313850000308600870035308312D0
:1005C00090008E010B308F00DC308E00C0308B0429
:1005D000222987150C30B70072210130B800B9000C
:1005E0006021673003178D0000308F0003139E21B8
:1005F0000230B100FA30B800BB20B10BFA2AAB1BB5
:10060000052B2B08093C031C1D2B0130B8000230C0
:10061000B90060216F3003178D0000308F00031088
:1006200005300313B100F4212B08B1001830B200DB
:1006300060222030B7007221312B0130B800023027
:10064000B9006021743003178D0000308F00031053
:1006500005300313B100F4212B08B1001830B200AB
:100660006022AC1B372B2C08093C031C4F2B093094
:10067000B8000230B9006021783003178D000030D7
:100680008F00031006300313B100F4212C08B100D1
:100690001830B20060222030B7007221632B09307D
:1006A000B8000230B90060217D3003178D000030A2
:1006B0008F00031006300313B100F4212C08B100A1
:1006C0001830B20060228518692B851C652BAB039E
:1006D000871505196F2B051D6B2BAB0A871585191F
:1006E000752B851D712BAC038715051A7B2B051EF9
:1006F000772BAC0A8715851A832B851E7D2B8316D5
:100700000C14852B8312FF2A83160C308312B7003A
:1007100072210130B8000230B90060218230031725
:100720008D0000308F00031005300313B100F42159
:100730002B08B1001830B20060220930B800023036
:10074000B9006021863003178D0000308F00031040
:1007500006300313B100F4212C08B1001830B200A8
:1007600060220130B800B90060218B3003178D0082
:1007700000308F00031004300313B100F4212E0861
:10078000B1001830B20060222030B70072212C086E
:100790002B07AD002E0BCD2B87112B082E02031D2E
:1007A000052CAD1B052C2E082D02031C052CAC1BA3
:1007B000052C2C08003C0318052CAB1B052C2E0B1C
:1007C000E22B871107160830B8000130B90060210C
:1007D0008F3003178D0000308F0003139E210130EE
:1007E000B800B9006021943003178D0000308F00ED
:1007F000031004300313B100F4212E08B1001830A7
:10080000B20060222030B70072212D082E02031D95
:10081000352CAC1B352C2C08003C0318352CAB1B9D
:10082000352C07120830B8000130B900602198302B
:1008300003178D0000308F0003139E210130B80094
:10084000B90060219D3003178D0000308F00031028
:1008500004300313B100F4212E08B1001830B200A7
:1008600060222030B7007221AE01AB1B3D2CAC1BC7
:100870003D2C2C08003C031C5D2C07120130B800F5
:10088000B9006021A13003178D0000308F000313E1
:100890009E210130B8000230B9006021A930031751
:1008A0008D0000308F0003139E210630B100FA3016
:1008B000B800BB20B10B572C5E2C892B83160C1073
:1008C00004308312B100FA30B800BB20B10B632CA6
:1008D0000C30B70072210130B800B9006021B2308D
:1008E00003178D0000308F0003139E210130B800E4
:1008F0000230B9006021B53003178D0000308F0041
:0609000003139E216300B9
:04400E00E420FF3F6C
:00000001FF
;PIC16F886
;CRC=DF86  CREATED="30-ene-19 19:46"
